:020000040800F2
:10000000F09700240100100875151008431410081B
:10001000110A0008D10010086B1810080000000039
:10002000000000000000000000000000AD02000819
:10003000B104000800000000090300087116100850
:100040001B0010081B0010081B0010081B001008E4
:100050001B0010081B0010081B0010081B001008D4
:100060001B0010081B0010081B0010081B001008C4
:100070001B0010081B0010081B0010081B001008B4
:100080001B0010081B0010081B0010081B001008A4
:100090001B0010081B0010081B0010081B00100894
:1000A0001B0010081B0010081B0010081B00100884
:1000B0001B0010081B0010081B0010081B00100874
:1000C0001B0010081B0010081B0010081B00100864
:1000D0001B0010081B0010081B0010081B00100854
:1000E0001B0010081B001008000000001B00100877
:1000F0001B0010081B0010081B0010081B00100834
:100100001B0010081B0010081B0010081B00100823
:100110001B0010081B0010081B0010081B00100813
:100120001B0010081B0010081B0010081B00100803
:100130001B0010081B0010081B0010081B001008F3
:1001400000000000000000000000000000000000AF
:100150001B0010081B0010081B0010081B001008D3
:100160001B0010081B0010081B0010081B001008C3
:100170001B0010081B0010081B00100800000000E6
:100180001B0010081B0010081B0010081B001008A3
:100190001B0010081B0010081B0010081B00100893
:1001A0001B0010081B0010081B0010081B00100883
:1001B0001B0010081B0010081B0010081B00100873
:1001C0001B0010081B0010081B0010081B00100863
:1001D0001B0010081B0010081B0010081B00100853
:1001E0001B0010081B0010081B0010081B00100843
:1001F0001B0010081B0010081B0010081B00100833
:100200001B0010081B0010081B0010081B00100822
:100210001B0010081B0010081B0010081B00100812
:100220001B0010081B0010081B0010080000000035
:100230001B0010081B001008000000001B00100825
:100240001B0010081B0010081B0010081B001008E2
:100250001B0010081B0010081B0010081B001008D2
:100260001B0010081B0010081B0010081B001008C2
:100270001B0010081B0010081B00100800000000E5
:100280001B001008000000001B0010080000000008
:10029000000000001B001008DFF80CD000F078F818
:1002A0000048004709180008F09700242D4B1968F2
:1002B0000868B0E8F04F80F30988BFF36F8F4FF004
:1002C000000080F3118870470000000008480068B3
:1002D000006880F308884FF0000080F3148862B64D
:1002E00061B6BFF34F8FBFF36F8F00DF00BF00BF5A
:1002F00008ED00E0DFF80C00016841F470010160D6
:10030000704700BF88ED00E0EFF30980BFF36F8F07
:10031000144B1A681EF0100F08BF20ED108A20E958
:10032000F04F106009B44FF0500072B680F311889E
:10033000BFF34F8FBFF36F8F62B601F15FFD4FF0D8
:10034000000080F3118809BC19680868B0E8F04F14
:100350001EF0100F08BFB0EC108A80F30988BFF3BD
:100360006F8F704720000024EFF305807047202A2C
:1003700004DB203A21FA02F00021704721FA02F34F
:10038000D040C2F120029140084319467047000056
:10039000064C074D06E0E06840F0010394E80700D2
:1003A00098471034AC42F6D3FFF77AFFF4210008E7
:1003B0001422000800B5B5B000BF3948006840F00D
:1003C0000100374908600846006800F0010000900D
:1003D00000BF00BF00BF0846006840F00100086091
:1003E0000846006800F00100009000BF00BF012037
:1003F000019000201F9001A8FFF0ECFF00BF2848EB
:100400001030006840F0100025491031086008469F
:10041000006800F01000009000BF00BF4FF40070B3
:10042000309002203190012032900220339007203A
:10043000349030A91B4800F03DF84FF480603090B4
:100440000720349030A9174800F034F816481749AF
:1004500008604FF4E1304860002114488160C160B9
:1004600001610C21416100218161C16101620020B3
:100470000E494863084600F145FF00220621252069
:10048000FFF03EFE2520FFF02BFE084800680068C4
:1004900040F0200005490968086035B000BD000043
:1004A000E044025800000258001001408C00002473
:1004B00070470000F8B502460B46002100260024D4
:1004C0000020824D00BFFCE0012707FA01F61F68FB
:1004D00007EA0604B4427CD15F68022F02D05F684D
:1004E000122F1AD14FEAD10C02F1200757F82C0035
:1004F0004F074FEAD76C0F2707FA0CF7B8434FEABC
:10050000417C4FEADC6C1F6907FA0CF738434FEA6D
:10051000D10C02F1200747F82C0010684FEA410C7B
:10052000032707FA0CF7B8431F7907F003074FEAD0
:10053000410C07FA0CF7384310605F68012F08D0B0
:100540005F68022F05D05F68112F02D05F68122FFD
:1005500017D190684FEA410C032707FA0CF7B8430C
:100560004FEA410CDF6807FA0CF738439060506897
:1005700001278F40B8431F79C7F300178F403843D6
:100580005060D0684FEA410C032707FA0CF7B843D4
:100590004FEA410C9F6807FA0CF73843D0605F6858
:1005A00007F08057B7F1805F95D100BF484F3F6893
:1005B00047F00207DFF818C1CCF8007067463F68C3
:1005C00007F00207009700BF00BF424F4FEA910CAF
:1005D00000E075E057F82C008F074FEA177C0F27D3
:1005E00007FA0CF7B8433C4FBA4201D100272DE07F
:1005F0003A4FBA4201D1012728E0394FBA4201D11E
:10060000022723E0374FBA4201D103271EE0364FBD
:10061000BA4201D1042719E0344FBA4201D105276B
:1006200014E0334FBA4201D106270FE0314FBA42EE
:1006300001D107270AE0304FBA4201D1082705E06F
:100640002E4FBA4201D1092700E00A274FEA817CE8
:100650004FEA1C7C07FA0CF738431E4F4FEA910C07
:1006600047F82C002868A0435F6807F48037B7F587
:10067000803F00D1204328606868A0435F6807F48A
:100680000037B7F5003F00D1204368604FF0B04716
:100690003868A0435F6807F48017B7F5801F00D162
:1006A00020434FF0B04738607868A0435F6807F494
:1006B0000017B7F5001F00D120434FF0B047786016
:1006C000491C1029FFF400AFF8BD0000800000585D
:1006D000F44402580804005800000258000402586C
:1006E00000080258000C025800100258001402586A
:1006F00000180258001C025800200258002402581A
:100700000AB1018300E041837047000010B500F199
:10071000D7FC0949096801F470614FF4807292FABC
:10072000A2F2B2FA82F2D140044A515CC8400449B4
:1007300008600846006810BD18440258E42100080B
:100740000000002470B5014600220120002300248F
:100750009FED811AB0EE410A9FED7F1AF0EE410A3B
:100760007E4D2D6805F003027C4D2D68C5F30530E4
:100770007A4D2D1D2D6805F01003784D14352D6828
:10078000C5F3CC0515FB03F501EE105AB8EE411A7E
:10079000B0EE410A22B1012A4DD0022A7DD169E092
:1007A0006E4D283D2D68C5F340152DB36B4D283D8A
:1007B0002D68C5F3C1066A4D25FA06F4B4FBF0F5C1
:1007C00001EE105AF8EE411A9FED661A80EE012AEA
:1007D000624D10352D68C5F3080501EE105AB8EECC
:1007E000411A32EE011AB7EE002A31EE021A21EE5A
:1007F000811AF0EE410A1DE0594DB5FBF0F501EE0E
:10080000105AF8EE411A9FED571A80EE012A534D07
:1008100010352D68C5F3080501EE105AB8EE411ADF
:1008200032EE011AB7EE002A31EE021A21EE811AD9
:10083000F0EE410A5EE04C4DB5FBF0F501EE105ACA
:10084000B8EE412A9FED471AC0EE011A434D10350C
:100850002D68C5F3080501EE105AB8EE411A31EEC5
:10086000811AF7EE001A31EE211A22EE011AF0EE8B
:10087000410A3FE03D4DB5FBF0F501EE105AF8EEB0
:10088000411A9FED381A80EE012A344D10352D683B
:10089000C5F3080501EE105A00E00CE0B8EE411A6D
:1008A00032EE011AB7EE002A31EE021A21EE811A59
:1008B000F0EE410A1EE02C4DB5FBF0F501EE105AAA
:1008C000B8EE412A9FED271AC0EE011A234D1035CC
:1008D0002D68C5F3080501EE105AB8EE411A31EE45
:1008E000811AF7EE001A31EE211A22EE011AF0EE0B
:1008F000410A00BF00BF194D10352D68C5F34625CC
:100900006D1C01EE105AB8EE411AC0EE811ABCEE11
:10091000E11A81ED001A114D10352D68C5F3064519
:100920006D1C01EE105AB8EE411AC0EE811ABCEEF1
:10093000E11A81ED011A094D10352D68C5F30665E0
:100940006D1C01EE105AB8EE411AC0EE811ABCEED1
:10095000E11A81ED021A70BD00000000284402581F
:100960000090D0030000004600093D0040787D0162
:1009700010B500F173FB0749096801F4E0614FF419
:10098000807292FAA2F2B2FA82F2D140024A515C2B
:10099000C84010BD1C440258E42100087047000004
:1009A00017E0002220210B48FFF7AAFE0AA000F161
:1009B0005FFF4FF4FA7001F0E7FA012220210548A9
:1009C000FFF79EFE0BA000F153FF4FF4FA7001F009
:1009D000DBFAE6E7000402584C45445F5461736B50
:1009E0002052756E6E696E672C4C45445F4F4E0DFC
:1009F0000A0000004C45445F5461736B2052756ED1
:100A00006E696E672C4C45445F4F46460D0A0000E8
:100A100000BFFEE770B50446002500263A4800688E
:100A200000F00300032801D1012070BD36482838AA
:100A3000006820F08050344928390860FFF04AFBF4
:100A4000054606E0FFF046FB401B022801D90320C3
:100A5000EBE72D4828380068C0F340700028F1D13A
:100A600000BF2948006820F07C70218840EA0150CE
:100A700025490860A088401EC0F30800A168491EEF
:100A80004FF47E4202EA41210843A189491ED20166
:100A900002EA01410843217C491E120202EA016177
:100AA000084319491831086000BF1748001D006845
:100AB00020F44060616908431349091D0860084635
:100AC000006820F40070A16908430F49091D0860FF
:100AD0000D482838006840F080500B4928390860DC
:100AE000FFF0F8FA054606E0FFF0F4FA401B022892
:100AF00001D9032099E7044828380068C0F3407002
:100B00000028F1D0304690E7284402581CB504462E
:100B100001F076F90D4800210B466422CDE9001062
:100B20000BA10E4801F074FA0D4800210B46642217
:100B3000CDE900100BA10E4801F06AFA0D480068DB
:100B400001F17EF801F140F81CBD000018000024FE
:100B50004C45445F5461736B00000000A10900081C
:100B60001C0000244C4544315F5461736B0000004D
:100B7000491410081400002470B5022500EE905AA4
:100B80000022022000230024DFED781AB0EE611A63
:100B9000774D2D6805F0380535B1082D0ED0102D94
:100BA00010D0182D77D111E0714D103D2D68C5F38F
:100BB000C106704DF540704E3560C2E06F4D6E4E0F
:100BC0003560BEE06E4D6C4E3560BAE0684D18354C
:100BD0002D6805F00302664D18352D68C5F3051024
:100BE000634D1C352D6805F00103614D24352D68DA
:100BF000C5F3CC0515FB03F501EE905AB8EE610A7A
:100C000022B1012A28D0022A65D145E0584D103D75
:100C10002D68C5F3C106574D25FA06F4B4FBF0F56F
:100C200001EE905AF8EE612ADFED561A80EE212A85
:100C30004F4D20352D68C5F3080501EE905AF8EEAA
:100C4000611A72EE211AB7EE002A71EE821A62EE74
:100C5000A11AB0EE611A5DE0484DB5FBF0F501EE6A
:100C6000905AB8EE612ADFED471AC0EE212A404DB6
:100C700020352D68C5F3080501EE905AF8EE611A8B
:100C800072EEA11AF7EE002A71EEA21A62EE211A94
:100C9000B0EE611A3EE050E0394DB5FBF0F501EEE3
:100CA000905AB8EE612ADFED371AC0EE212A304D96
:100CB00020352D68C5F3080501EE905AF8EE611A4B
:100CC00072EEA11AF7EE002A71EEA21A62EE211A54
:100CD000B0EE611A1EE0294DB5FBF0F501EE905A19
:100CE000F8EE612ADFED271A80EE212A204D20350B
:100CF0002D68C5F3080501EE905AF8EE611A72EE00
:100D0000211AB7EE002A71EE821A62EEA11AB0EE35
:100D1000611A00BF00BF164D20352D68C5F346256A
:100D20006D1C00EE905AF8EE601A81EE212AFCEE5E
:100D3000C21A114DC5ED001A03E0104D0E4E35607C
:100D400000BF00BF0A4D08352D6805F470654FF4EB
:100D5000807696FAA6F6B6FA86F6F5400A4E715DEA
:100D6000054D2D68CD40044E356070BD000000007B
:100D7000104402580090D0030000002400093D00F8
:100D800040787D0100000046E421000838B50446A3
:100D900000250020E067FFF09DF905462068006807
:100DA00000F0080008280CD16FF07E402B4600228E
:100DB0004FF400110090204600F121FD08B10320FE
:100DC00038BD2068006800F0040004280CD16FF0E2
:100DD0007E402B4600224FF480010090204600F117
:100DE0000EFD08B10320EBE7202084F8790084F899
:100DF0007A0000BF002084F8780000BF00BFDFE762
:100E00002DE9F04F89B0044600254FF08008A9462F
:100E1000AA4600200890FA492068884201D10120A2
:100E200000E0002000B100E000BFA06AB0F1005F68
:100E300000D100BF2169A068084361690843E169E6
:100E400040EA0105A06A054320680068ED490840B2
:100E50002843216808602068406820F44050E16819
:100E6000084321684860A569E5492068884201D1A6
:100E7000012000E0002008B9206A0543A06AB0F113
:100E8000005F03D1D4E90B01084305432068806863
:100E9000DD4908402843216888602068C06A20F046
:100EA0000F00616A08432168C86200BFD749206803
:100EB000884224D1D648006800F03800182814D0A1
:100EC00005DC48B108280AD0102817D10AE02028EC
:100ED0000ED0282812D10EE04FF001080EE04FF09E
:100EE00004080BE04FF0400808E04FF0080805E068
:100EF0004FF0100802E04FF0200800BF17E1C5498D
:100F0000206888421DD1C248006800F0070006280A
:100F100016D2DFE800F00306090C0F124FF00008AC
:100F20000EE04FF004080BE04FF0400808E04FF0EF
:100F3000080805E04FF0100802E04FF0200800BF5D
:100F4000F5E0B549206888421DD1B148006800F03D
:100F50000700062816D2DFE800F00306090C0F127E
:100F60004FF000080EE04FF004080BE04FF040088F
:100F700008E04FF0080805E04FF0100802E04FF0DD
:100F8000200800BFD3E0A549206888421DD1A048B1
:100F9000006800F00700062816D2DFE800F003061C
:100FA000090C0F124FF000080EE04FF004080BE0A0
:100FB0004FF0400808E04FF0080805E04FF0100837
:100FC00002E04FF0200800BFB1E095492068884258
:100FD0001DD18F48006800F00700062816D2DFE810
:100FE00000F00306090C0F124FF000080EE04FF05E
:100FF00004080BE04FF0400808E04FF0080805E057
:101000004FF0100802E04FF0200800BF8FE0854944
:101010002068884224D17E48006800F038001828F3
:1010200014D005DC48B108280AD0102817D10AE0EE
:1010300020280ED0282812D10EE04FF001080EE033
:101040004FF004080BE04FF0400808E04FF00808AC
:1010500005E04FF0100802E04FF0200800BF66E006
:101060007149206888421DD16948006800F0070076
:10107000062816D2DFE800F00306090C0F124FF025
:1010800000080EE04FF004080BE04FF0400808E0C5
:101090004FF0080805E04FF0100802E04FF020087C
:1010A00000BF44E06149206888421DD1584800686B
:1010B00000F00700062816D2DFE800F00306090C4E
:1010C0000F124FF000080EE04FF004080BE04FF055
:1010D000400808E04FF0080805E04FF0100802E073
:1010E0004FF0200800BF22E04549206888421ED109
:1010F0004748001D006800F00700062816D2DFE808
:1011000000F00306090C0F124FF002080EE04FF03A
:1011100004080BE04FF0400808E04FF0080805E035
:101120004FF0100802E04FF0200800BF00BF00BFE2
:1011300033492068884201D1012000E000200028C6
:101140005DD00025B8F1100F33D009DCB8F1020FE3
:1011500010D0B8F1040F11D0B8F1080F2ED117E05C
:10116000B8F1200F27D0B8F1400F0CD0B8F1800FA4
:1011700024D124E0FFF002F8054623E005A8FFF79C
:10118000E1FA069D1EE002A8FFF00EF8039D19E0AB
:101190001F4854380068C0F3401040B11C48543810
:1011A0000068C0F3C101224820FA01F500E0204D9B
:1011B00008E0204D06E04FF4004503E000BF0120A9
:1011C000089000BF00BF002D0AD0606800EB40000F
:1011D000A84203D860680003A84202D20120089008
:1011E000D4E2B8F1100F7CD026DCB8F1020F2DD07C
:1011F000B8F1040F52D0B8F1080F73D19EE03FE16F
:10120000000C0058F369FFCFFFF4FF1100100140FC
:10121000544402580044004000480040004C004044
:10122000005000400014014000780040007C004065
:101230000090D00300093D00B8F1200F7DD0B8F137
:10124000400F54D0B8F1800FD7D109E1FEF096FFDE
:1012500000270646FB49606A31F810C062463B46EB
:1012600030463946FEF0DEFE4FF48076002203461B
:10127000A3FB060701FB067103FB02136168490823
:10128000064671185A41CDE90012666832460023BD
:1012900008460199FEF0C6FE0546E4E005A8FFF702
:1012A00051FADDF818C0E749606A31F810B05A46C3
:1012B000002360461946FEF0B5FE4FF4807C002204
:1012C000A0FB0C3B01FB0CB100FB0210616849085C
:1012D0005E1840EB0201D4F804C062460023304699
:1012E00001E079E0BBE0FEF09DFE0546BBE002A810
:1012F000FEF05AFFDDF80CC0D249606A31F810B038
:101300005A46002360461946FEF08CFE4FF4807C5E
:101310000022A0FB0C3B01FB0CB100FB021061683A
:1013200049085E1840EB0201D4F804C0624600236D
:101330003046FEF077FE054695E06EE0C248006854
:10134000C0F3401038B3C0480068C0F3C101BF48C3
:1013500020FA01FCBB49606A31F810B05A460023FC
:1013600060461946FEF05EFE4FF4807C0022A0FB32
:101370000C3B01FB0CB100FB0210616849085E18D0
:1013800040EB0201D4F804C0624600233046FEF070
:1013900049FE05461FE0AB49606A31F810C062465D
:1013A0000023AA481946FEF03DFE4FF4807C00223F
:1013B000A0FB0C3B01FB0CB100FB0210616849086B
:1013C0005E1840EB0201D4F804C0624600233046A8
:1013D000FEF028FE054646E09A49606A31F810C0E2
:1013E000624600239A481946FEF01CFE4FF4807CAA
:1013F0000022A0FB0C3B01FB0CB100FB021061685A
:1014000049085E1840EB0201D4F804C0624600238C
:101410003046FEF007FE054625E08A49606A31F84D
:1014200010C0624600234FF400401946FEF0FAFD5A
:101430004FF4807C0022A0FB0C3B01FB0CB100FBB5
:101440000210616849085E1840EB0201D4F804C03C
:10145000624600233046FEF0E5FD054603E000BF8E
:101460000120089000BF00BFB5F5407F05D3B5F55A
:10147000801F02D22068C56088E10120089085E1C4
:10148000E069B0F5004F7CD1B8F1100F7AD00CDCD8
:10149000B8F1000F13D0B8F1010F21D0B8F1040F4B
:1014A0002FD0B8F1080F6ED151E0B8F1200F6BD0FA
:1014B000B8F1400F38D0B8F1800F64D197E0FFF059
:1014C000E9FD604A616A32F81110B0FBF1F04000AA
:1014D000616800EB5100B0FBF1F01FFA80FA89E07F
:1014E000FFF746FA574A616A32F81110B0FBF1F083
:1014F0004000616800EB5100B0FBF1F01FFA80FA88
:1015000078E005A8FFF71EF906994E4A606A32F89E
:101510001000B1FBF0F04000616800EB5100B0FB3F
:10152000F1F01FFA80FA65E002A8FEF03DFE039993
:10153000444A606A32F81000B1FBF0F04000616884
:1015400000EB5100B0FBF1F01FFA80FA52E03E4888
:101550000068C0F34010C0B13B480068C0F3C1014F
:101560003A48C840374A616A32F81110B0FBF1F0CE
:101570004000616800EB5100B0FBF1F01FFA80FA07
:1015800012E044E011E031E01FE02E49606A31F8DA
:1015900010002E49B1FBF0F04000616800EB5100F3
:1015A000B0FBF1F01FFA80FA24E02649606A31F8B6
:1015B00010002749B1FBF0F04000616800EB5100DA
:1015C000B0FBF1F01FFA80FA14E01E49606A31F8AE
:1015D00010004FF40041B1FBF0F04000616800EBF7
:1015E0005100B0FBF1F01FFA80FA03E000BF0120C8
:1015F000089000BF00BF4FF6F0700AEA0009CAF376
:10160000420049EA00092068C0F80C90BEE0B8F139
:10161000100F7CD00CDCB8F1000F1BD0B8F1010F1B
:1016200029D0B8F1040F37D0B8F1080F70D159E0C4
:10163000B8F1200F6DD0B8F1400F40D0B8F1800F55
:1016400066D19FE0A0211008004402580090D0030A
:1016500000093D00FFF01EFD4E4A616A32F811108C
:10166000B0FBF1F0616800EB5100B0FBF1F080B22B
:101670002168C86089E0FFF77BF9464A616A32F861
:101680001110B0FBF1F0616800EB5100B0FBF1F01C
:1016900080B22168C86078E005A8FFF753F8069982
:1016A0003C4A606A32F81000B1FBF0F0616800EB70
:1016B0005100B0FBF1F080B22168C86065E002A87B
:1016C000FEF072FD0399334A606A32F81000B1FBF4
:1016D000F0F0616800EB5100B0FBF1F080B22168DE
:1016E000C86052E02C480068C0F34010C0B12A48DE
:1016F0000068C0F3C1012948C840264A616A32F82F
:101700001110B0FBF1F0616800EB510002E017E04E
:1017100037E025E0B0FBF1F080B22168C8600EE050
:101720001C49606A31F810001C49B1FBF0F0616897
:1017300000EB5100B0FBF1F080B22168C86024E0FA
:101740001449606A31F810001549B1FBF0F0616886
:1017500000EB5100B0FBF1F080B22168C86014E0EA
:101760000C49606A31F810004FF40041B1FBF0F011
:10177000616800EB5100B0FBF1F080B22168C860F5
:1017800003E000BF0120089000BF00BF089809B027
:10179000BDE8F08FA0211008004402580090D0034B
:1017A00000093D0010B5002804DB0A07130E054AA6
:1017B000135406E00A07140E034A00F00F031B1F20
:1017C000D45410BD00E400E018ED00E002E008C8C9
:1017D000121F08C1002AFAD170477047002001E0AB
:1017E00001C1121F002AFBD17047000013B50C463F
:1017F0004FF47A73012269460248FFF0BFFD00985A
:101800001CBD00008C0000241CB5FFF7B5F91E4874
:1018100000684FF47A72B0FBF2F1481EB0F1807F9D
:1018200001D301201BE0481E4FF0E0225061501709
:101830000F22002804DB13071C0E144B1C5406E077
:1018400013071D0E124B00F00F04241F1D5500BF7F
:1018500000204FF0E022906107201061002008B1C5
:1018600000BFFEE7FFF028FEFEF7A4FD09480021B7
:101870000B466422CDE9001007A10A4800F0C8FB1E
:1018800000F166FA00BFFEE70000002400E400E07B
:1018900018ED00E0140000245374617274546173F5
:1018A0006B0000000D0B00082DE9F04105460E46C7
:1018B0001C4807681C480068001D00F063FA50B916
:1018C0001948006890F82C100120884017490968D1
:1018D000814316480160681C38B936B11248016866
:1018E000091D134800F07FFA1AE07C190E480068C1
:1018F0004460BC4207D20C480168091D0D480068CD
:1019000000F057FA0CE008480168091D0A48006811
:1019100000F04FFA09480068844201D20748046089
:10192000BDE8F081340000242000002438000024A9
:10193000DC0300242800002424000024500000249C
:1019400010B5044600F05CFA23480068401C2249A8
:1019500008602248006840B92048046008460068D2
:1019600001280DD100F1B0F80AE01D48006838B92F
:101970001A480068C06AE16A884201D817480460C2
:1019800018480068401C1749086094F82C10012082
:10199000884015490968084313490860E16A01EB6A
:1019A0008101124A02EB8100211D00F01CFA00F1B6
:1019B0000BF90B48006868B108480068C06AE16A22
:1019C000884207D24FF0805009490860BFF34F8F1B
:1019D000BFF36F8F10BD00003000002420000024F2
:1019E0003C0000244C000024380000240C0100249A
:1019F00004ED00E010B50446206B00F04BFA2046E1
:101A000000F048FA10BD000030B54FF410431748FD
:101A100000F007042CB1C01D20F00700134C041B7C
:101A20001B1B0246124C22600024114D6C60D01822
:101A3000083820F007000F4C206000240D4D2D6861
:101A40006C600C4D2D682C601146441A4C60094C9A
:101A500024680C60084D4C682C60084D4C682C6064
:101A60004FF00044064D2C6030BD0000F003002410
:101A70006800002470000024780000247400002412
:101A8000840000242DE9FF5F81460E469246DDE981
:101A90000E7B109CAAF10100216B01EB800828F05D
:101AA000070808F0070008B9012000E0002028B965
:101AB0004FF459721EA124A0FFF0DAFE86B1002572
:101AC00007E0715D04F134004155705D00B902E03A
:101AD0006D1C102DF5D300BF00214320015502E0FD
:101AE000002084F83400202F00D31F27E7626764AA
:101AF0000020A064201D00F059F904F1180000F046
:101B000055F92461C7F12000A06164620020E064FF
:101B100084F8500049464046039A00F01DF92060C1
:101B2000BBF1000F01D0CBF80040BDE8FF9F0000E3
:101B30002E2E5C2E2E5C4672656552544F535C749B
:101B400061736B732E6300004572726F723A257376
:101B50002C25640D0A00000010B50146164800E06F
:101B6000006803688B42FBD30246436813448B42F0
:101B700004D143684C682344436001460A464B68DD
:101B800013440468A34211D10C4C03682468A34297
:101B900008D04B680468646823444B6003681B6882
:101BA0000B6005E0054B1B680B6001E003680B60F0
:101BB000884200D0016010BD68000024700000243D
:101BC0000A490968096809B9012100E0002121B129
:101BD0004FF0FF31064A116006E004490968C96800
:101BE000C868034A4168116070470000240000245F
:101BF000500000242DE9F04104464FF0000800F0A9
:101C0000FFF94048006808B9FFF7FEFE3E4800684B
:101C10002040002864D1A4B1083404F0070080B14A
:101C200004F00700C0F10800044404F0070008B9FC
:101C3000012000E0002020B9972234A13EA0FFF04F
:101C400017FE002C4CD040480068844248D83F4ED4
:101C50003046056801E02E462D686868A04202D231
:101C600028680028F7D127480068854238D03068B6
:101C700000F10808286830606868001B102813D934
:101C80002F1907F0070008B9012000E0002020B953
:101C9000C4221EA128A0FFF0EBFD6868001B78603D
:101CA0006C603846FFF758FF274968680968081ACA
:101CB000254908600846006825490968884203D21A
:101CC00021480068224908600F496868096808438C
:101CD0006860002028601F480068401C1D4908609B
:101CE00000F0D6F908F0070008B9012000E0002054
:101CF00028B940F2051205A10FA0FFF0B9FD40463A
:101D0000BDE8F08170000024840000242E2E5C2E9B
:101D10002E5C4672656552544F535C706F727461ED
:101D2000626C655C4D656D4D616E675C6865617088
:101D30005F342E63000000004572726F723A2573A3
:101D40002C25640D0A0000007400002468000024A3
:101D5000780000247C000024001F4FF08073036093
:101D6000001F21F001030360001F054B03601438BE
:101D70000260001F6FF0020303602038704700000C
:101D8000311B100801460A69D1E901309860D1E998
:101D9000010358605068884201D188685060002073
:101DA00008611068401E10601068704700210161D2
:101DB000704710B502460B685C1C0CB9106907E04F
:101DC00002F1080000E04068446824689C42FAD9A7
:101DD00044684C604C68A160886041600A61146886
:101DE000641C146010BD42684A6093688B609368FD
:101DF00059609160086103685B1C036070470000D4
:101E000010B500BF502072B680F31188BFF34F8F1A
:101E1000BFF36F8F62B600BF0B480068401C0A49D1
:101E200008600846006801280DD108480068C0B263
:101E300008B9012000E0002028B940F2971204A15F
:101E400010A0FFF015FD10BD5C00002404ED00E0C3
:101E50002E2E5C2E2E5C4672656552544F535C707C
:101E60006F727461626C655C525644535C41524DB2
:101E70005F434D375C723070315C706F72742E63EB
:101E8000000000004572726F723A25732C25640DB4
:101E90000A00000070B506463546002E3AD0083DCF
:101EA0002C461D4960680968084008B1012000E01F
:101EB000002028B940F2191218A123A0FFF0D8FC85
:101EC000206808B9012000E0002028B94FF48D7285
:101ED00012A11DA0FFF0CCFC0F4960680968084002
:101EE000C0B12068B0B90C49606809688843606077
:101EF00000F086F8184960680968084416490860C7
:101F00002046FFF729FE15480068401C1349086069
:101F100000F0BEF870BD0000840000242E2E5C2E60
:101F20002E5C4672656552544F535C706F727461DB
:101F3000626C655C4D656D4D616E675C6865617076
:101F40005F342E63000000004572726F723A257391
:101F50002C25640D0A000000740000248000002479
:101F600000204FF0E02108618861064800684FF4C6
:101F70007A71B0FBF1F0401E4FF0E021486107207C
:101F8000086170470000002470B504460025ACB11C
:101F90000F48006808B9012000E0002028B940F28D
:101FA00044520CA111A0FFF063FC00F029F80021BD
:101FB0002046FFF779FC00F06BF805463DB94FF07D
:101FC00080500E490860BFF34F8FBFF36F8F70BD15
:101FD000580000242E2E5C2E2E5C467265655254ED
:101FE0004F535C7461736B732E6300004572726FA4
:101FF000723A25732C25640D0A00000004ED00E000
:1020000002480068401C01490860704758000024DD
:102010002DE9FF4F85B0804689461746DDE912ABB2
:10202000B800FFF7E7FD064656B15420FFF7E2FD82
:1020300004460CB1266304E03046FFF72BFF00E0B6
:1020400000247CB10020CDE900ABCDE902403A4646
:1020500049464046089BFFF715FD2046FFF770FCF8
:10206000012501E04FF0FF35284609B0BDE8F08FAB
:102070000549096809B9012005E00449096809B959
:10208000022000E0002070473C000024580000249B
:1020900070B5002400263448006828B940F699023B
:1020A00032A138A0FFF0E4FBFFF7AAFE2E4800683B
:1020B000401E2D4908600846006800284FD1354869
:1020C000006800284BD024E03348C068C46804F19D
:1020D0001800FFF757FE201DFFF754FE94F82C1050
:1020E000012088402D49096808432C490860E16AAD
:1020F00001EB81012A4A02EB8100211DFFF773FEEB
:102100002849E06A0968C96A884202D30120264941
:1021100008602148006808B9012000E0002000287C
:10212000D2D00CB1FFF74CFD2048056865B100BF67
:10213000FFF084FF10B101201B4908606D1E002DC7
:10214000F6D10020194908601748006838B1012607
:10215000300717490860BFF34F8FBFF36F8FFFF051
:1021600033FD304670BD0000580000242E2E5C2E3A
:102170002E5C4672656552544F535C7461736B7389
:102180002E6300004572726F723A25732C25640D20
:102190000A00000030000024B403002438000024AA
:1021A0000C010024200000244400002440000024EE
:1021B00004ED00E0010002000400060008000A002F
:1021C0000C0010002000400080000001010002000F
:1021D0000400060008000A000C0010002000400067
:1021E000800000010000000001020304010203045A
:1021F0000607080914220008000000248C000000D3
:10220000CC170008A02200088C000024649700006E
:10221000DC1700080090D0030090D00300000000FD
:10222000100000000100000000000000000000009D
:10223000000000000000000000000000000000009E
:10224000000000000000000000000000000000008E
:10225000000000000000000000000000000000007E
:10226000000000000000000000000000000000006E
:10227000AAAAAAAA000000000000000000000000B6
:10228000000000000000000000000000000000004E
:10229000000000000000000000000000000000003E
:020000040810E2
:100000000648804706480047FEE7FEE7FEE7FEE7B2
:10001000FEE7FEE7FEE7FEE7FEE7FEE781161008D3
:10002000990200082DE9F05F0546002092469B46A4
:1000300088460646814640241BE0284641464746FE
:10004000224600F794F953465A46C01A914110D3FC
:1000500011461846224600F02CF82D1A67EB0108CD
:100060004F4622460120002100F023F817EB00093B
:100070004E41201EA4F10104DFDC484631462A46E9
:100080004346BDE8F09F30B50B46014600202022D4
:10009000012409E021FA02F59D4205D303FA02F595
:1000A000491B04FA02F52844151EA2F10102F1DCF5
:1000B00030BD202A04DB203A00FA02F1002070470C
:1000C0009140C2F1200320FA03F319439040704796
:1000D00000BFFEE7014800687047000008000024E8
:1000E00001460846002809DB00F01F0301229A4060
:1000F00043099B0003F1E023C3F8002100BF7047D0
:100100002DE9F05F80460D461646002701F0C0FB42
:10011000074639462A46334601F00700C0F1070A70
:10012000BAF1040F02D94FF0040A01E0C0F1070A46
:10013000D14600F1040ABAF1070F02D24FF0000ACB
:1001400001E0A0F1030AD4464FF0010A0AFA09FAC5
:10015000AAF1010A0AEA020A0AFA0CFA4FF0010BA4
:100160000BFA0CFBABF1010B0BEA030B4AEA0B0495
:100170002146404601F716FBBDE8F09F10B500F0A0
:100180006DFF0749096801F07001102292FAA2F28E
:10019000B2FA82F2D140034A515CC84010BD00005F
:1001A00020440258E421000870B5014600220120D5
:1001B000002300249FED811AB0EE410A9FED7F1AC3
:1001C000F0EE410A7E4D2D6805F003027C4D2D684E
:1001D000C5F305507A4D2D1D2D6805F48073784DBB
:1001E0001C352D68C5F3CC0515FB03F501EE105A3F
:1001F000B8EE411AB0EE410A22B1012A4DD0022ACE
:100200007DD169E06E4D283D2D68C5F340152DB3B5
:100210006B4D283D2D68C5F3C1066A4D25FA06F4DD
:10022000B4FBF0F501EE105AF8EE411A9FED661A94
:1002300080EE012A624D18352D68C5F3080501EEE0
:10024000105AB8EE411A32EE011AB7EE002A31EE1A
:10025000021A21EE811AF0EE410A1DE0594DB5FB5C
:10026000F0F501EE105AF8EE411A9FED571A80EEA4
:10027000012A534D18352D68C5F3080501EE105AB3
:10028000B8EE411A32EE011AB7EE002A31EE021A28
:1002900021EE811AF0EE410A5EE04C4DB5FBF0F51F
:1002A00001EE105AB8EE412A9FED471AC0EE011A2E
:1002B000434D18352D68C5F3080501EE105AB8EE08
:1002C000411A31EE811AF7EE001A31EE211A22EEB0
:1002D000011AF0EE410A3FE03D4DB5FBF0F501EEAD
:1002E000105AF8EE411A9FED381A80EE012A344D6B
:1002F00018352D68C5F3080501EE105A00E00CE032
:10030000B8EE411A32EE011AB7EE002A31EE021AA7
:1003100021EE811AF0EE410A1EE02C4DB5FBF0F5FE
:1003200001EE105AB8EE412A9FED271AC0EE011ACD
:10033000234D18352D68C5F3080501EE105AB8EEA7
:10034000411A31EE811AF7EE001A31EE211A22EE2F
:10035000011AF0EE410A00BF00BF194D18352D6893
:10036000C5F346256D1C01EE105AB8EE411AC0EED9
:10037000811ABCEEE11A81ED001A114D18352D6875
:10038000C5F306456D1C01EE105AB8EE411AC0EED9
:10039000811ABCEEE11A81ED011A094D18352D685C
:1003A000C5F306656D1C01EE105AB8EE411AC0EE99
:1003B000811ABCEEE11A81ED021A70BD0000000046
:1003C000284402580090D0030000004600093D0078
:1003D00040787D012DE9F04104464FF000080027E8
:1003E00000250026206800F0006000283AD0606EEA
:1003F00048B1B0F5801F0DD0B0F5001F15D0B0F595
:10040000401F1FD11DE0FB48006840F40030F9494F
:10041000086019E0F748006840F40010F5490860EA
:10042000201D01F0A9F805460EE0F248006840F0F2
:100430008070F049086004F1240000F7EBFA0546EB
:1004400002E001E0012500BF00BF55B9E9482430B2
:10045000006820F44010616E0843E64924310860CA
:1004600000E02E43208800F48070A8B3606D05285A
:1004700024D2DFE800F0030A15212200DD480068DD
:1004800040F40030DB4908601AE0DA48006840F4C4
:100490000020D8490860201D01F06EF805460FE0E5
:1004A000D448006840F48000D249086004F1240078
:1004B00000F7B0FA054603E002E001E0012500BFC5
:1004C00000BF55B9CB482430006820F00700616DAB
:1004D0000843C8492431086000E02E43208800F416
:1004E0000070D8B3A06D80281CD003DC40B1402838
:1004F00026D10CE0C02821D0B0F5807F20D11EE0AD
:10050000BC48006840F40030BA4908601AE0B948B5
:10051000006840F40020B7490860201D01F02CF865
:1005200005460FE0B348006840F48000B149086018
:1005300004F1240000F76EFA054603E002E001E052
:10054000012500BF00BF55B9AA482430006820F437
:10055000E070A16D0843A7492431086000E02E43F4
:10056000208800F4806078B3D4F8A400B0F5800F40
:100570001ED004DC50B1B0F5001F28D10DE0B0F55D
:10058000C00F22D0B0F5000F21D11FE099480068BC
:1005900040F40030974908601BE09648006840F43A
:1005A000002094490860201D00F0E6FF054610E099
:1005B0009048006840F480008E49086004F12400EF
:1005C00000F728FA054604E012E002E001E0012508
:1005D00000BF00BF5DB987482C30006820F4600080
:1005E000D4F8A410084383492C31086000E02E435E
:1005F000208800F4006078B3D4F8A800B0F1007F40
:100600001ED004DC50B1B0F1807F28D10DE0B0F1F4
:10061000407F22D0B0F1806F21D11FE07548006883
:1006200040F40030734908601BE07248006840F4F1
:10063000002070490860201D00F09EFF054610E074
:100640006C48006840F480006A49086004F12400A6
:1006500000F7E0F9054604E012E002E001E00125C0
:1006600000BF00BF5DB963482C30006820F0E06037
:10067000D4F8A81008435F492C31086000E02E43ED
:10068000206800F0007050B3A06CC8B1102804D0EE
:10069000202809D0302814D111E05648006840F4D1
:1006A0000030544908600EE05248006840F40010E1
:1006B00050490860201D00F05FFF054603E002E09E
:1006C00001E0012500BF00BF55B94A48203000684D
:1006D00020F03000A16C084346492031086000E05A
:1006E0002E43208800F4805078B3E06DB0F5005FB1
:1006F0001ED004DC50B1B0F5805F28D10DE0B0F51C
:10070000405F21D0B0F5804F21D11FE0394800680B
:1007100040F40030374908601BE03648006840F478
:10072000002034490860201D00F026FF054610E037
:100730003048006840F480002E49086004F124002D
:1007400000F768F9054604E003E010E001E0012548
:1007500000BF00BF55B927482430006820F4E040AE
:10076000E16D084323492431086000E02E432088CE
:1007700000F40050E0B3206EB0F5403F27D007DC16
:1007800068B1B0F5803F0BD0B0F5003F22D112E048
:10079000B0F5802F1CD0B0F5A02F1BD119E01BE0C5
:1007A0001448006840F4801012490860201D00F0D1
:1007B000E3FE054610E00F48006840F400000D49D4
:1007C000086004F1240000F725F9054604E003E081
:1007D00002E001E0012500BF00BF6DB905482430EB
:1007E000006820F4E020216E0843024924310860AB
:1007F00003E000002C4402582E43208800F480407F
:1008000078B3D4F8AC00B0F1405F27D007DC68B112
:10081000B0F1805F0BD0B0F1005F23D112E0B0F1F6
:10082000804F1CD0B0F1A04F1CD119E01CE0FA4859
:10083000006840F48010F8490860201D00F09CFE1C
:10084000054611E0F448006840F40000F2490860F1
:1008500004F1240000F7DEF8054605E004E003E0BB
:1008600002E010E0012500BF00BF5DB9EA482C306E
:10087000006820F0E040D4F8AC100843E6492C3181
:10088000086000E02E43208800F4004048B3E06E8A
:10089000C0B1B0F1805F03D0B0F1005F13D106E0CA
:1008A000DD48006840F40030DB4908600DE0DA48BC
:1008B000006840F48010D8490860201D00F05CFEFC
:1008C000054602E001E0012500BF00BF55B9D2484E
:1008D0002430006820F04050E16E0843CE492431B6
:1008E000086000E02E43206800F0807050B3606C18
:1008F000C8B1012804D0022809D0032814D111E07E
:10090000C548006840F40030C34908600EE0C248A2
:10091000006840F40010C0490860201D00F02CFE63
:10092000054603E002E001E0012500BF00BF55B924
:10093000B9482030006820F00300616C0843B649D4
:100940002031086000E02E43206800F48000E8B306
:10095000B248006840F48070B0490860FFF7BAFB05
:10096000074606E0FFF7B6FBC01B642801D9032544
:1009700005E0AA48006800F480700028F2D000BFAB
:100980009DBBA5484430006800F44070B4F8B01036
:1009900001F44071884214D09F484430006820F42C
:1009A00040789D484430006840F480309A49443192
:1009B00008600846006820F4803008600846C0F8E7
:1009C0000080D4F8B000B0F5807F00E045E015D19C
:1009D000FFF780FB074609E0FFF77CFBC01B41F2F5
:1009E0008831884202D9032507E035E08A4844303F
:1009F0000068C0F340000028EED000BF55BB00BF28
:100A0000B4F8B00000F44070B0F5407F0ED18248D9
:100A10001C38006820F47C51814AD4F8B0001040A2
:100A200041EA10107C491C39086007E07A481C38FC
:100A3000006820F47C5078491C39086076484430BE
:100A40000068B4F8B010C1F30B0108437249443197
:100A5000086002E02E4300E02E43207800F0010001
:100A6000B8B3A06F182823D005DC48B1082808D0F7
:100A7000102820D110E020281BD028281BD119E0F5
:100A80001BE06548006840F4801063490860201D41
:100A900000F072FD054610E05F48006840F4000079
:100AA0005D49086004F12400FFF6B4FF054604E048
:100AB00003E002E001E0012500BF00BF55B9564840
:100AC0002830006820F03800A16F084352492831CF
:100AD000086000E02E43207800F0020080B3606FD1
:100AE00006281FD2DFE800F003040F1B1C1D1BE0CB
:100AF0004948006840F4801047490860201D00F014
:100B00003BFD054610E04448006840F400004249BF
:100B1000086004F12400FFF67DFF054604E003E0D1
:100B200002E001E0012500BF00BF55B93A48283076
:100B3000006820F00700616F0843374928310860DA
:100B400000E02E43207800F0040090B3D4F8900029
:100B500006281FD2DFE800F003040F1B1C1D1BE05A
:100B60002D48006840F480102B490860201D00F0DB
:100B700003FD054610E02848006840F400002649BF
:100B8000086004F12400FFF645FF054604E003E099
:100B900002E001E0012500BF00BF5DB91E482C3016
:100BA000006820F00700D4F8901008431A492C314F
:100BB000086000E02E43207800F0200090B3D4F8C5
:100BC0008C00B0F1405F2ED007DC68B1B0F1805FDF
:100BD0000BD0B0F1005F29D112E0B0F1804F23D0EB
:100BE000B0F1A04F22D120E022E00B48006840F491
:100BF000002009490860201D00F0BEFC054617E0F2
:100C00000548006840F080700349086004F1240042
:100C1000FFF600FF05460BE02C440258004802583E
:100C2000FFFCFF0F11E003E002E001E0012500BF3F
:100C300000BF4DB9FE48006820F0E040D4F88C10A9
:100C40000843FB49086000E02E43207800F0400094
:100C500080B3D4F89800B0F5406F2CD007DC68B1B1
:100C6000B0F5806F0BD0B0F5006F27D114E0B0F570
:100C7000805F21D0B0F5A05F20D11EE020E0EC48DD
:100C80002838006840F40020E94928390860201D10
:100C900000F072FC054613E0E5482838006840F093
:100CA0008070E3492839086004F12400FFF6B2FEA1
:100CB000054605E013E003E002E001E0012500BF86
:100CC00000BF5DB9DA48001D006820F4E050D4F898
:100CD00098100843D649091D086000E02E4320788B
:100CE00000F0800080B3D4F89C00B0F5C04F2CD049
:100CF00007DC68B1B0F5005F0BD0B0F5804F27D1AD
:100D000014E0B0F5004F21D0B0F5204F20D11EE007
:100D100020E0C7482838006840F40020C44928393A
:100D20000860201D00F028FC054613E0C048283864
:100D3000006840F08070BE492839086004F1240042
:100D4000FFF668FE054605E013E003E002E001E07F
:100D5000012500BF00BF5DB9B548001D006820F443
:100D60006040D4F89C100843B149091D086000E0B8
:100D70002E43207800F00800D0B1D4F88000B0F500
:100D8000805F0CD104F12400FFF644FEA848283807
:100D9000006840F08070A6492839086008E0A4483F
:100DA000006820F44050D4F880100843A04908603F
:100DB000207800F01000E0B1D4F89400B0F5807F06
:100DC0000CD104F12400FFF625FE9948283800686C
:100DD00040F080709649283908600AE09448001D68
:100DE000006820F44070D4F8941008439049091D1D
:100DF0000860206800F40020A0B3D4F8A00030B14F
:100E0000B0F5803F10D0B0F5003F1CD11AE0884803
:100E10002838006840F40020854928390860201DE2
:100E200000F0AAFB054610E081482838006840F031
:100E300080707F492839086004F12400FFF6EAFD3C
:100E4000054602E001E0012500BF00BF5DB978481A
:100E5000001D006820F44030D4F8A0100843744905
:100E6000091D086000E02E43206800F4802080B354
:100E7000D4F88400B0F5801F06D0B0F5001F0CD068
:100E8000B0F5401F18D116E069482838006840F4D2
:100E9000003067492839086010E065482838006844
:100EA00040F4000062492839086004F12400FFF68C
:100EB000B1FD054602E001E0012500BF00BF4DB9CC
:100EC0005B48006820F44010D4F884100843584967
:100ED000086000E02E43206800F4803048B3E06CE6
:100EE00018B1B0F5803F16D108E0514828380068A5
:100EF00040F400304E49283908600EE04C4828384C
:100F0000006840F400104A4928390860201D00F0AC
:100F100033FB054601E0012500BF00BF55B9444839
:100F20000838006820F48030E16C084340490839F3
:100F3000086000E02E43206800F0005060B13C489B
:100F40002838006840F0807039492839086004F179
:100F50002400FFF65FFD0643206800F4003018B35C
:100F6000E06FA0B1B0F5807F06D0B0F5007F0CD067
:100F7000B0F5407F0CD109E02D482838006840F4D6
:100F800000302B492839086004E003E002E001E06A
:100F9000012500BF00BF45B92548006820F4407016
:100FA000E16F08432249086000E02E43206800F406
:100FB000801048B11E48001F006820F00040216FDB
:100FC00008431B49091F0860206800F0805050B199
:100FD00017484438006820F48040D4F8B41008431F
:100FE000134944390860206800F4001048B11048E3
:100FF000001F006820F08070A16E08430C49091F93
:101000000860206800F0804088B100BF084844387C
:10101000006820F40040064944390860084600682A
:10102000D4F8B810084302494439086000BF01E011
:1010300054440258206800F0004038B10648006867
:1010400020F04050216D08430349086016B9002084
:10105000BDE8F0810120FBE74C44025810B5FFF6D3
:1010600055FB0949096801F00F01012292FAA2F229
:10107000B2FA82F2D140054A515CC8400449086086
:101080000846006810BD000018440258E42100081A
:101090000400002410B5FFF7E1FF0749096801F0DB
:1010A0007001102292FAA2F2B2FA82F2D140034AFF
:1010B000515CC84010BD00001C440258E4210008E7
:1010C00070B5012500EE905A002201210023002472
:1010D000DFED861AB0EE610ADFED841AB0EE611A18
:1010E0000020834D2D6805F0380535B1082D15D049
:1010F000102D15D0182D7CD114E07D4D103D2D689C
:10110000C5F3401545B17A4D103D2D68C5F3C106B4
:10111000784D25FA06F000E07648E5E07648E3E011
:101120007648E1E0724D18352D6805F00302704DE8
:1011300018352D68C5F305116D4D1C352D6805F06A
:1011400001036B4D24352D68C5F3CC0515FB03F564
:1011500001EE905AF8EE611AB0EE610A22B1012A4E
:101160004FD0022A7DD16BE0614D103D2D68C5F353
:1011700040152DB35E4D103D2D68C5F3C1065D4D84
:1011800025FA06F4B4FBF1F501EE905AB8EE612AA7
:10119000DFED5B1AC0EE212A554D20352D68C5F3D1
:1011A000080501EE905AF8EE611A72EEA11AF7EEF8
:1011B000002A71EEA21A62EE211AB0EE611A1FE047
:1011C0004C4DB5FBF1F501EE905AB8EE612ADFED1A
:1011D0004C1AC0EE212A464D20352D68C5F308056E
:1011E00001EE905AF8EE611A72EEA11AF7EE002A9B
:1011F00000E077E071EEA21A62EE211AB0EE611AF9
:101200005EE03D4DB5FBF1F501EE905AB8EE612A76
:10121000DFED3B1AC0EE212A354D20352D68C5F390
:10122000080501EE905AF8EE611A72EEA11AF7EE77
:10123000002A71EEA21A62EE211AB0EE611A3FE0A6
:101240002E4DB5FBF1F501EE905AB8EE612ADFEDB7
:101250002C1AC0EE212A264D20352D68C5F308052D
:1012600000E00EE001EE905AF8EE611A72EEA11A5B
:10127000F7EE002A71EEA21A62EE211AB0EE611AA0
:101280001EE01D4DB5FBF1F501EE905AF8EE612A16
:10129000DFED1B1A80EE212A154D20352D68C5F390
:1012A000080501EE905AF8EE611A72EE211AB7EEB7
:1012B000002A71EE821A62EEA11AB0EE611A00BF26
:1012C00000BF0B4D20352D68C5F346256D1C00EE83
:1012D000905AF8EE601A81EE212AFCEEC21A11EE45
:1012E000900A01E0044800BF00BF70BD000000008C
:1012F000104402580090D00300093D0040787D0161
:101300000000004610B504460CB9012010BDA069CC
:1013100000B100E000BF94F8790028B9002084F8FB
:1013200078002046FFF63AFB242084F879002068F4
:10133000006820F00100216808602046FFF660FD8B
:10134000012800D1E2E7606B10B1204600F0E2F91D
:101350002068406820F490402168486020688068D8
:1013600020F02A00216888602068006840F00100B1
:10137000216808602046FFF609FDC7E72DE9F8431C
:1013800004460D4616461F464FF0000994F87900B2
:10139000202854D105B116B90120BDE8F88300BF5B
:1013A00094F87800012801D10220F6E7012084F8A2
:1013B000780000BF00206034E06121206076FEF7F5
:1013C00089FE814626806680603C21E0B4F8620098
:1013D000401EA4F862004B46002280212046009760
:1013E00000F00DFA08B10320D7E7A068B0F5805FE0
:1013F0000AD1206940B9A846B8F80000C0F3080037
:1014000021680885AD1C03E015F8010B21680885EB
:10141000B4F862000028D9D14B4600224021204672
:10142000009700F0ECF908B10320B6E7202084F81B
:10143000790000BF002084F8780000BFADE70220EB
:10144000ABE700BFFEE7000017E0002220210B48B9
:10145000FFF656F90AA000F00BFA4FF4FA7000F705
:1014600093FD012220210548FFF64AF90BA000F068
:10147000FFF94FF4FA7000F787FDE6E70010025815
:101480004C45445F5461736B2052756E6E696E6794
:101490002C4C4544315F4F4E0D0A00004C45445FD3
:1014A0005461736B2052756E6E696E672C4C4544A7
:1014B000315F4F46460D0A0000B587B000BF29488E
:1014C000006840F00200274908600846006800F004
:1014D0000200019000BF00BF00BF0846006840F056
:1014E000100008600846006800F01000019000BF7E
:1014F00000BF00BF0846006840F0020008600846D0
:10150000006800F00200019000BF00BF00BF084665
:10151000006840F0200008600846006800F02000E5
:10152000019000BF00BF2020029001200390049092
:101530000220059002A90C48FEF6BCFF2020029074
:1015400002A90A48FEF6B6FF1020029002A906483A
:10155000FEF6B0FF4020029002A90548FEF6AAFF61
:1015600007B000BDE04402580004025800100258C1
:10157000001402587047000070B50446002500268C
:101580003A48006800F00300032801D1012070BD33
:1015900036482838006820F08060344928390860CF
:1015A000FEF798FD054606E0FEF794FD401B022875
:1015B00001D90320EBE72D4828380068C0F3C0604C
:1015C0000028F1D100BF2948006820F47C30216850
:1015D00040EA013025490860A088401EC0F3080099
:1015E000A168491E4FF47E4202EA41210843A189C5
:1015F000491ED20102EA01410843217C491E120220
:1016000002EA0161084319491031086000BF174818
:10161000001D006820F0C000616908431349091DDE
:1016200008600846006820F02000A16908430F49BF
:10163000091D08600D482838006840F080600B499B
:1016400028390860FEF746FD054606E0FEF742FD34
:10165000401B022801D9032099E704482838006874
:10166000C0F3C0600028F1D0304690E7284402580B
:1016700010B500F7FDFC012801D000F0C3FC10BD3F
:101680002048006840F470001E4908601E48006849
:1016900040F001001C49086000201B49103108601F
:1016A0001948006819490840174908600020164980
:1016B00018310860091D0860091D086012492831A9
:1016C0000860091D0860091D0860091D0860091DE2
:1016D0000860091D0860091D0860091D08600A48A6
:1016E000006820F480200849086000200649603125
:1016F0000860012006490860C00602498039086078
:101700007047000088ED00E0004402587FEDF6EAE3
:101710000881005190F8341001F0010139B10168DD
:10172000496821F40031826B11430268516090F8DE
:10173000341001F0020139B10168496821F48031A7
:10174000C26B11430268516090F8341001F004013B
:1017500039B10168496821F48021026C11430268A3
:10176000516090F8341001F0080139B101684968FE
:1017700021F40041426C11430268516090F834102A
:1017800001F0100139B10168896821F48051826C3F
:1017900011430268916090F8341001F0200139B1D2
:1017A0000168896821F40051C26C1143026891609C
:1017B00090F8341001F0400199B10168496821F4B2
:1017C0008011026D114302685160016DB1F5801FF7
:1017D00007D10168496821F4C001426D11430268D4
:1017E000516090F8341001F0800139B10168496806
:1017F00021F40021826D11430268516070472DE988
:10180000F04104460D4617469846069E21E0701C9E
:10181000F8B12EB1FEF75EFCA0EB0800B04218D97B
:101820002068006820F4D070216808602068806813
:1018300020F0010021688860202084F8790084F875
:101840007A0000BF002084F8780000BF0320BDE8C4
:10185000F0812068C0692840A84201D1012000E041
:101860000020B842D3D00020F1E700BFFEE700001F
:101870000FB4054B10B503A9044A029800F010F804
:1018800010BC5DF814FB0000ED1700088800002470
:1018900002480068C0F30220704700000CED00E031
:1018A0002DE9FF4F8BB09A460F460546002606E00D
:1018B00025280BD052460D9990476D1C761C287830
:1018C0000028F5D10FB03046BDE8F08F0024A046C7
:1018D0000122604900E0044315F8013F203B02FA71
:1018E00003F00842F7D128782E2817D115F8010FF8
:1018F00044F004042A280ED06FF02F022878A0F1BB
:10190000300109290AD808EB880102EB410100EBFC
:1019100001086D1CF2E757F8048B6D1C28786928C4
:101920003ED006DC0028CDD063280BD0642804D13B
:1019300036E0732810D075284BD052460D99904749
:10194000761C85E017F8040B8DF8000000208DF858
:101950000100E946012003E057F8049B4FF0FF30F7
:1019600061074FF0000401D40AE0641C44450DDA1D
:101970008442FADB19F804100029F6D106E0641C51
:101980008442FCDB19F804100029F8D1264404E055
:1019900019F8010B52460D999047641EF8D257E092
:1019A00001CF4FF00A0B002802DA40422D2102E05D
:1019B000210504D52B218DF82410012103E0E10736
:1019C00005D02021F7E70DF1200908910CE0002156
:1019D000F9E701CF4FF00A0BF9E75946FEF753FB41
:1019E00001F1300209F8012D0028F6D1ADEB090014
:1019F00000F1200B600701D44FF00108D84502DD4B
:101A0000A8EB0B0000E000208046002406E009A8B7
:101A10005246005D0D999047641C761C08988442DC
:101A2000F5DB04E0302052460D999047761CB8F162
:101A30000001A8F10108F5DC05E019F8010B524698
:101A40000D999047761CBBF10001ABF1010BF4DC62
:101A50006D1C34E70928010010B516E000F7D0F935
:101A60000C48C068C468201D00F78CF90A4800685B
:101A7000401E0949086009480068401E074908607F
:101A800000F0A2F82046FFF6B5FF044800680028E1
:101A9000E4D110BDC8030024300000242C00002431
:101AA00000BFFFF7D9FF064800680128F9D94FF0B9
:101AB000805004490860BFF34F8FBFF36F8FF0E78A
:101AC0000C01002404ED00E010B5002407E004EB55
:101AD00084010F4A02EB810000F068F8641C202C9E
:101AE000F5D30C4800F062F80B4800F05FF80B48A3
:101AF00000F05CF80A4800F059F80A4800F056F87F
:101B000004480949086004480849086010BD0000FD
:101B10000C0100248C030024A0030024B40300243F
:101B2000C8030024DC03002424000024280000242F
:101B30000C480068401C08B9012000E0002020B9D2
:101B4000DF2209A115A0FFF793FE00BF502072B657
:101B500080F31188BFF34F8FBFF36F8F62B600BF62
:101B600000BFFEE75C0000242E2E5C2E2E5C467229
:101B7000656552544F535C706F727461626C655C42
:101B8000525644535C41524D5F434D375C72307046
:101B9000315C706F72742E63000000004572726FCA
:101BA000723A25732C25640D0A00000000F108012B
:101BB00041604FF0FF31816000F10801C1600161B7
:101BC000002101607047000010B50B48006828B97B
:101BD0004FF4CF7209A116A0FFF74AFE064800682D
:101BE000401E054908600846006820B9002080F3BF
:101BF000118800BF00BF10BD5C0000242E2E5C2E9B
:101C00002E5C4672656552544F535C706F727461FE
:101C1000626C655C525644535C41524D5F434D3794
:101C20005C723070315C706F72742E630000000063
:101C30004572726F723A25732C25640D0A000000FC
:101C400070B5054600F7DCF815B92D48006800E0CE
:101C500028460446201D00F795F878B9E06A00EBA5
:101C60008000284951F8200040B994F82C10012038
:101C7000884025490968814323480160A06A18B15A
:101C800004F1180000F77EF820480068401C1F4946
:101C900008601B480068844209D1211D1C4800F7D8
:101CA000A2F81C480068401C1A49086009E01A485C
:101CB0000068401E184908602046FFF69BFEFFF6AC
:101CC0007FFFFFF781FF15480068C0B10C4800682E
:101CD000844214D11248006808B9012000E00020B5
:101CE00028B940F2DA420FA114A0FFF7C1FD4FF06E
:101CF000805016490860BFF34F8FBFF36F8F70BDE0
:101D0000200000240C010024380000244C00002492
:101D1000C80300242C000024300000243C000024D0
:101D2000580000242E2E5C2E2E5C4672656552549F
:101D30004F535C7461736B732E6300004572726F56
:101D4000723A25732C25640D0A00000004ED00E0B2
:101D50001CB5194800210B468022CDE9001017A1BF
:101D6000184800F755F90446012C17D100BF502040
:101D700072B680F31188BFF34F8FBFF36F8F62B6D7
:101D800000BF4FF0FF301049086001200F49086084
:101D900000200F49086000F087F80BE0601C08B1D4
:101DA000012000E0002028B940F62A0209A10FA076
:101DB000FFF75EFD1CBD00005400002449444C4563
:101DC00000000000A11A1008500000243C0000246C
:101DD000340000242E2E5C2E2E5C46726565525413
:101DE0004F535C7461736B732E6300004572726FA6
:101DF000723A25732C25640D0A00000010B51B48AB
:101E0000006818B101201A4908602DE00020184927
:101E1000086018480068B0FA80F0C0F11F0404EBB5
:101E20008400154951F8200008B1012000E000208D
:101E300028B940F6E13211A116A0FFF719FD04EB15
:101E400084010D4A02EB810041684968416000F15C
:101E5000080142688A4202D141684968416041688C
:101E6000C968104A116000BF10BD0000580000246E
:101E700044000024380000240C0100242E2E5C2E87
:101E80002E5C4672656552544F535C7461736B737C
:101E90002E6300004572726F723A25732C25640D13
:101EA0000A000000200000241CB53F4C20460078AA
:101EB0000190FF20214608700846007800909DF8A8
:101EC000000000F0F0009DF80010884201D10120D0
:101ED00000E0002028B940F23F1234A140A0FFF7F3
:101EE000C7FC9DF8000000F0500041490870072031
:101EF0004049086009E03F480068401E3D490860CD
:101F00009DF800004006000E00909DF8000000F0D3
:101F100080008028EFD037480068C0F1070004280F
:101F200001D1012000E0002028B94FF4A9721FA1BF
:101F30002BA0FFF79DFC2F480068C0F10700042884
:101F400001D1012000E0002028B940F25B1217A166
:101F500023A0FFF78DFC2748006800022549086090
:101F60000846008800F4E06008600F490198087096
:101F70002148006840F470001F4908600846006866
:101F800040F070400860FFF6EBFF00201B4908603E
:101F9000FEF6B0F91A48006840F040401849086061
:101FA000FEF694F900201CBD00E400E02E2E5C2E0D
:101FB0002E5C4672656552544F535C706F7274614B
:101FC000626C655C525644535C41524D5F434D37E1
:101FD0005C723070315C706F72742E6300000000B0
:101FE0004572726F723A25732C25640D0A00000049
:101FF000600000246400002420ED00E05C00002468
:1020000034EF00E010B500BF502072B680F31188A5
:10201000BFF34F8FBFF36F8F62B600BF00F00EF8B3
:1020200018B14FF080500449086000BF002080F3D1
:10203000118800BF10BD000004ED00E02DE9F04163
:102040004FF0000841480068002877D140480068F8
:10205000451C3F480560EDB93E480068006808B976
:10206000012000E0002028B940F6A9223AA140A0B2
:10207000FFF7FEFB374807684148006835490860AC
:102080003F4807603F480068401C3E490860FFF633
:1020900097FD00BF3C48006885423CD300BF2D48F7
:1020A0000068006808B9012000E0002020B14FF06E
:1020B000FF30354908602DE026480068C068C468D4
:1020C0006668B54202D23048066023E0201DFFF664
:1020D00059FEA06A18B104F11800FFF653FE94F8F7
:1020E0002C100120884029490968084327490860C5
:1020F000E16A01EB8101264A02EB8100211DFFF616
:1021000072FE2449E06A0968C96A8842C7D34FF061
:102110000108C4E700BF1F480068C06A00EB8000E8
:102120001B4951F82000012801D94FF001081A4835
:10213000006808B14FF0010805E0FFE717480068A4
:10214000401C164908604046BDE8F0815800002454
:1021500034000024240000242E2E5C2E2E5C4672B7
:10216000656552544F535C7461736B732E6300004A
:102170004572726F723A25732C25640D0A000000B7
:1021800028000024480000245000002438000024C7
:102190000C010024200000244400002440000024FE
:1021A000010002000400060008000A000C001000F4
:1021B0002000400080000001010002000400060031
:1021C00008000A000C001000200040008000000100
:040000050800029954
:00000001FF
